:020000040800F2
:1000000000500020B5090008050A0008050A00088C
:10001000050A0008050A0008050A0008000000009B
:10002000000000000000000000000000050A0008B9
:10003000050A000800000000050A0008050A00087B
:10004000050A0008050A0008050A0008050A000854
:10005000050A0008050A0008050A0008050A000844
:10006000050A0008050A0008050A0008050A000834
:10007000050A0008050A0008050A0008050A000824
:10008000050A0008050A0008050A0008050A000814
:10009000050A0008050A0008050A0008050A000804
:1000A000050A0008050A0008050A0008050A0008F4
:1000B000050A0008050A0008050A0008050A0008E4
:1000C000050A0008050A0008050A0008050A0008D4
:1000D000050A0008050A0008050A0008050A0008C4
:1000E000050A0008050A000800000000050A0008CB
:1000F000050A0008050A0008050A0008050A0008A4
:10010000050A0008050A0008050A0008050A000893
:10011000050A0008050A0008050A0008050A000883
:10012000050A0008050A0008050A0008050A000873
:1001300010B5054C237833B9044B13B10448AFF321
:1001400000800123237010BD00000020000000008B
:10015000500A000808B5034B1BB103490348AFF32D
:10016000008008BD0000000004000020500A0008C4
:1001700080B483B000AF0346FB710B46BB711346DE
:100180007B71FB79022B00F2B680BB790F2B00F25A
:10019000B2807B790F2B00F2AE80BB79072B52D84F
:1001A000FB79022B37D0022B00F3A680002B02D064
:1001B000012B18D0A0E0534B1B68BA7992000F2195
:1001C00001FA02F2D24311464E4A0B4013604D4BE6
:1001D0001B687979BA79920001FA02F21146494A0C
:1001E0000B43136088E0484B1B68BA7992000F21DB
:1001F00001FA02F2D2431146434A0B401360424BCC
:100200001B687979BA79920001FA02F211463E4AE6
:100210000B43136070E03D4B1B68BA7992000F21CD
:1002200001FA02F2D2431146384A0B401360374BB1
:100230001B687979BA79920001FA02F21146334AC1
:100240000B43136058E0BB790F2B54D8BB79083BA4
:10025000BB71FB79022B36D0022B4DDC002B02D078
:10026000012B18D048E02A4B1B68BA7992000F2165
:1002700001FA02F2D2431146254A0B401360244B87
:100280001B687979BA79920001FA02F21146204A84
:100290000B43136030E01F4B1B68BA7992000F21AB
:1002A00001FA02F2D24311461A4A0B401360194B6D
:1002B0001B687979BA79920001FA02F21146154A5F
:1002C0000B43136018E0144B1B68BA7992000F219E
:1002D00001FA02F2D24311460F4A0B4013600E4B53
:1002E0001B687979BA79920001FA02F211460A4A3A
:1002F0000B43136000E000BF00BF0C37BD4680BC5D
:10030000704700BF00080140000C01400010014090
:1003100004080140040C01400410014080B483B083
:1003200000AF0346FB710B46BB7113467B71FB7933
:10033000022B61D8BB790F2B5ED87B79002B2DD196
:10034000FB79022B1ED0022B57DC002B02D0012B95
:100350000CD052E02B4B1B68BA79012101FA02F252
:10036000D2431146274A0B40136046E0264B1B68D8
:10037000BA79012101FA02F2D2431146224A0B4016
:1003800013603AE0214B1B68BA79012101FA02F2AD
:10039000D24311461D4A0B4013602EE07B79012B9E
:1003A0002AD1FB79022B1CD0022B26DC002B02D099
:1003B000012B0BD021E0134B1B68BA79012101FA04
:1003C00002F211460F4A0B43136016E00E4B1B68F6
:1003D000BA79012101FA02F211460B4A0B4313606C
:1003E0000BE00A4B1B68BA79012101FA02F21146AF
:1003F000064A0B43136000E000BF00BF0C37BD4648
:1004000080BC70470C0801400C0C01400C100140EE
:1004100080B483B000AF03463A60FB710B46BB71FA
:10042000FB79022B30D8BB790F2B2DD8FB79022B0F
:100430001ED0022B29DC002B02D0012B0CD024E093
:10044000144B1A68BB7922FA03F3DBB203F0010301
:10045000DAB23B681A7018E00F4B1A68BB7922FABF
:1004600003F3DBB203F00103DAB23B681A700CE06D
:100470000A4B1A68BB7922FA03F3DBB203F00103DB
:10048000DAB23B681A7000E000BF00BF0C37BD460F
:1004900080BC704708080140080C0140081001406A
:1004A00080B485B000AF78600023FB6003E000BF3C
:1004B000FB680133FB607B684FF4FA7202FB03F3C5
:1004C000FA689A42F3D300BF00BF1437BD4680BC20
:1004D000704780B500AF022204210120FFF748FEDB
:1004E000022205210120FFF743FE022206210120FE
:1004F000FFF73EFE022207210120FFF739FE082206
:1005000009210020FFF734FE08220A210020FFF70E
:100510002FFE08220B210020FFF72AFE08220C21C3
:100520000020FFF725FE012209210020FFF7F6FE3B
:1005300001220A210020FFF7F1FE01220B210020F9
:10054000FFF7ECFE01220C210020FFF7E7FE01225D
:1005500004210120FFF7E2FE012205210120FFF71F
:10056000DDFE012206210120FFF7D8FE012207212E
:100570000120FFF7D3FE00BF80BD000090B587B01B
:1005800000AFFF237B752A4B3C1D0FCB84E80F0087
:100590000423FB7543E0FB7D002219460120FFF791
:1005A000BDFE0923BB752EE0FA1CBB7D1946002059
:1005B000FFF72EFFFB78002B22D16420FFF770FF9E
:1005C000FA1CBB7D19460020FFF722FFFB78002BA9
:1005D00016D105E0FA1CBB7D19460020FFF718FF75
:1005E000FB78002BF6D0FB7D1A1FBB7D093B9200E8
:1005F00018323A441344143B1B78FB70FB7812E02A
:10060000BB7D0133BB75BB7D0C2BCDD9FB7D01229E
:1006100019460120FFF782FEFB7D0133FB75FB7D50
:10062000072BB8D97B7D18461C37BD4690BD00BF4F
:10063000680A000880B500AF022201210020FFF700
:1006400097FD022202210020FFF792FD02220621DF
:100650000020FFF78DFD022205210020FFF788FD15
:10066000022204210020FFF783FD02220321002043
:10067000FFF77EFD2320FFF713FF0022012100205A
:10068000FFF74CFE002202210020FFF747FE002268
:1006900006210020FFF742FE002205210020FFF77F
:1006A0003DFE012204210020FFF738FE0022032135
:1006B0000020FFF733FE012202210020FFF72EFE6B
:1006C0000120FFF7EDFE002202210020FFF726FEA9
:1006D0000520FFF7E5FE282000F01DF80E2000F0B1
:1006E0001AF8012000F017F8062000F014F800BFF7
:1006F00080BD80B582B000AF0346FB7101220121AD
:100700000020FFF70BFEFB79184600F047F800BF0A
:100710000837BD4680BD80B582B000AF0346FB718F
:10072000002201210020FFF7F9FDFB79184600F0B7
:1007300035F800BF0837BD4680BD80B500AF012049
:10074000FFF7E9FF00BF80BD80B582B000AF034670
:100750000A46FB711346BB71FB79002B02D0FB7973
:10076000012B16D1BB790F2B13D8FB79002B02D0AC
:10077000012B07D00EE0BB79803BDBB21846FFF7B8
:10078000CAFF07E0BB79403BDBB21846FFF7C3FF67
:1007900000E000BF00BF0837BD4680BD80B582B015
:1007A00000AF0346FB71002202210020FFF7B6FDD7
:1007B000FB791B09DBB203F00103DBB21A4603210C
:1007C0000020FFF7ABFDFB795B09DBB203F001030F
:1007D000DBB21A4604210020FFF7A0FDFB799B093C
:1007E000DBB203F00103DBB21A4605210020FFF75C
:1007F00095FDFB79DB09DBB21A4606210020FFF7E5
:100800008DFD012202210020FFF788FD0120FFF766
:1008100047FE002202210020FFF780FD0520FFF7A0
:100820003FFEFB7903F00103DBB21A4603210020EF
:10083000FFF774FDFB795B08DBB203F00103DBB269
:100840001A4604210020FFF769FDFB799B08DBB203
:1008500003F00103DBB21A4605210020FFF75EFD1D
:10086000FB79DB08DBB203F00103DBB21A46062199
:100870000020FFF753FD012202210020FFF74EFD6B
:100880000120FFF70DFE002202210020FFF746FDA8
:100890000520FFF705FE00BF0837BD4680BD0000FC
:1008A00080B400AF0A4B1B68094A43F00103136090
:1008B000084B1B68074A23F001031360054B1B68B4
:1008C000044A23F00203136000BFBD4680BC70479A
:1008D000001002400410024080B483B000AF034611
:1008E0000A46FB711346BB71BB791F2B2AD8FB79D3
:1008F000022B1CD0022B25DC002B02D0012B0BD0AD
:1009000020E0134B1B68BA79012101FA02F211466B
:100910000F4A0B43136015E00E4B1B68BA79012197
:1009200001FA02F211460B4A0B4313600AE00A4B2C
:100930001B68BA79012101FA02F21146064A0B43FB
:10094000136000BF00BF0C37BD4680BC704700BFBE
:10095000141002401C1002401810024080B500AF75
:10096000FFF79EFF02210220FFF7B6FF03210220BE
:10097000FFF7B2FFFFF75EFEFFF7ABFDFFF7FEFDEF
:1009800003461A460A4B1A7001210020FFF7DCFECD
:10099000074B1B78FF2B04D0054B1B781846FFF73D
:1009A000A8FE4FF4FA70FFF77BFDFFF7C6FEE5E700
:1009B0001C0000200D488546AFF300800C480D490F
:1009C0000D4A002302E0D458C4500433C4188C42AA
:1009D000F9D30A4A0A4C002301E013600432A24210
:1009E000FBD300F011F8FFF7B9FFFEE7005000203D
:1009F0000000002000000020800A00080000002005
:100A000020000020FEE7000070B500260C4D0D4CC4
:100A1000641BA410A64209D100F01AF800260A4D62
:100A20000A4C641BA410A64205D170BD55F8043BC6
:100A300098470136EEE755F8043B98470136F2E750
:100A4000780A0008780A0008780A00087C0A00087A
:100A5000F8B500BFF8BC08BC9E467047F8B500BFAB
:080A6000F8BC08BC9E4670477B
:100A68003738392B3435362D3132332A41302F3D42
:040A7800550100081C
:040A7C00310100083C
:04000005080009B531
:00000001FF
